:200000000000000000000000383838380000000007070707000000003F3F3F3F00000000E8
:200020000000000007070707383838380707070707070707070707073F3F3F3F0707070758
:2000400000000000000000000C0C3F2D0C0C122100000000000000000C1E3F0C0C0C0C0C2C
:2000600000000000000000000000000000000000080C2E3F3F2E0C080C0C0C0C0C3F1E0CD9
:200080000000000038383838383838383838383807070707383838383F3F3F3F38383838E8
:2000A000000000003F3F3F3F383838383F3F3F3F070707073F3F3F3F3F3F3F3F3F3F3F3F58
:2000C0000000000000000000000000000000000000000000000000000C0C0C0C0C0C0C0CC0
:2000E0000000003F3F000000040C1D3F3F1D0C040304162D2121120C000000000000000000
:20010000000000000000000004040404040004000A0A0A00000000000A0A1F0A1F0A0A0039
:20012000110E0A0A0E1100001819020408130300040A0A0C15120D000606020400000000AE
:20014000020408080804020008040202020408000004150E150400000004041F04040000EE
:200160000000000C0C0408000000001F0000000000000000000C0C00000102040810000005
:200180000E11131519110E00040C040404040E000E11010608101F001F01020601110E000D
:2001A00002060A121F0202001F101E0101110E000708101E11110E001F01020408080800DF
:2001C0000E11110E11110E000E11110F01021C00000C0C00000C0C000C0C000C0C040800E7
:2001E000020408100804020000001F001F00000008040201020408000E110102040004004E
:200200000E11131517100E00040A11111F1111001E11111E11111E000E11101010110E00E5
:200220001E09090909091E001F10101E10101F001F10101E101010000E11101013110F00BA
:200240001111111F111111000E04040404040E000101010111110E0011121418141211002F
:200260001010101010111F00111B15151111110011111915131111000E11111111110E007F
:200280001E11111E101010000E11111115120D001E11111E141211000E11100E01110E0069
:2002A0001F040404040404001111111111110E001111110A0A0404001111111515150A00C8
:2002C00011110A040A11110011110A04040404001F01020E08101F000E08080808080E00DB
:2002E00000100804020100000E02020202020E000E110000000000000000000000001F007B
:200300001215151D15151200040A11111F1111001F10101E11111E0012121212121F0100C0
:20032000060A0A0A0A1F11001F10101E10101F00041F15151F0404001F11101010101000CF
:2003400011110A040A111100111113151911110015111315191111001112141814121100AD
:200360000709090909091900111B1515111111001111111F111111000E11111111110E00B1
:200380001F111111111111000F11110F050911001E11111E101010000E11101010110E007D
:2003A0001F040404040404001111110A040810001115150E151511001E11111E11111E008B
:2003C0001010101E11111E0011111119151519000E11010601110E001115151515151F0021
:2003E0000E11010701110E0015151515151F01001111111F010101003F3F3F3F3F3F3F001F
:00000001FF
